:020000040800F2
:100000000028002001160008111400081714000829
:100010001D14000823140008291400080000000023
:100020000000000000000000000000002F14000885
:100030003B14000800000000471400085314000897
:100040004916000849160008491600084916000814
:100050004916000849160008491600084916000804
:1000600049160008491600084916000849160008F4
:1000700061140008491600084916000849160008CE
:1000800049160008491600084916000849160008D4
:1000900049160008491600084916000849160008C4
:1000A00049160008491600084916000849160008B4
:1000B000491600084916000800000000491600080B
:1000C0004916000800000000000000004916000862
:1000D0000000000049160008491600080000000052
:1000E00049160008491600084916000800000000DB
:1000F0000000000000000000000000000000000000
:0C01000000000000000000005FF808F1A3
:1001100010B5054C237833B9044B13B10448AFF341
:1001200000800123237010BDE001002000000000CA
:10013000606D000808B5034B1BB103490348AFF3DA
:10014000008008BD00000000E4010020606D000890
:10015000034613F8012B002AFBD1181A0138704707
:1001600081F0004102E000BF83F0004330B54FEA68
:1001700041044FEA430594EA050F08BF90EA020FD5
:100180001FBF54EA000C55EA020C7FEA645C7FEA68
:10019000655C00F0E2804FEA5454D4EB5555B8BF8B
:1001A0006D420CDD2C4480EA020281EA030382EAFC
:1001B000000083EA010180EA020281EA0303362D8E
:1001C00088BF30BD11F0004F4FEA01314FF4801C61
:1001D0004CEA113102D0404261EB410113F0004F73
:1001E0004FEA03334CEA133302D0524263EB43032A
:1001F00094EA050F00F0A780A4F10104D5F1200EC8
:100200000DDB02FA0EFC22FA05F2801841F1000122
:1002100003FA0EF2801843FA05F359410EE0A5F1F6
:1002200020050EF1200E012A03FA0EFC28BF4CF027
:10023000020C43FA05F3C01851EBE37101F00045DD
:1002400007D54FF0000EDCF1000C7EEB00006EEBEA
:100250000101B1F5801F1BD3B1F5001F0CD3490874
:100260005FEA30004FEA3C0C04F101044FEA4452CB
:1002700012F5800F80F09A80BCF1004F08BF5FEA52
:10028000500C50F1000041EB045141EA050130BD32
:100290005FEA4C0C404141EB0101013C28BFB1F544
:1002A000801FE9D291F0000F04BF01460020B1FA8F
:1002B00081F308BF2033A3F10B03B3F120020CDA62
:1002C0000C3208DD02F1140CC2F10C0201FA0CF040
:1002D00021FA02F10CE002F11402D8BFC2F1200CA5
:1002E00001FA02F120FA0CFCDCBF41EA0C0190405B
:1002F000E41AA2BF01EB0451294330BD6FEA0404A4
:100300001F3C1CDA0C340EDC04F11404C4F120028E
:1003100020FA04F001FA02F340EA030021FA04F3A0
:1003200045EA030130BDC4F10C04C4F1200220FAF7
:1003300002F001FA04F340EA0300294630BD21FA35
:1003400004F0294630BD94F0000F83F4801306BFFB
:1003500081F480110134013D4EE77FEA645C18BFEF
:100360007FEA655C29D094EA050F08BF90EA020F86
:1003700005D054EA000C04BF1946104630BD91EA7E
:10038000030F1EBF0021002030BD5FEA545C05D181
:100390004000494128BF41F0004130BD14F58004C0
:1003A0003CBF01F5801130BD01F0004545F0FE4134
:1003B00041F470014FF0000030BD7FEA645C1ABF69
:1003C000194610467FEA655C1CBF0B46024650EAA0
:1003D000013406BF52EA033591EA030F41F40021CC
:1003E00030BD00BF90F0000F04BF0021704730B552
:1003F0004FF4806404F132044FF000054FF0000127
:1004000050E700BF90F0000F04BF0021704730B5E7
:100410004FF4806404F1320410F0004548BF4042BC
:100420004FF000013EE700BF42004FEAE2014FEA11
:1004300031014FEA02701FBF12F07F4393F07F4FEC
:1004400081F06051704732F07F4208BF704793F0EF
:100450007F4F04BF41F40021704730B54FF4607402
:1004600001F0004521F000411CE700BF50EA010205
:1004700008BF704730B54FF000050AE050EA0102AE
:1004800008BF704730B511F0004502D5404261EB1E
:1004900041014FF4806404F132045FEA915C3FF45F
:1004A000D8AE4FF003025FEADC0C18BF03325FEAFC
:1004B000DC0C18BF033202EBDC02C2F1200300FAAD
:1004C00003FC20FA02F001FA03FE40EA0E0021FAD2
:1004D00002F11444BDE600BF70B54FF0FF0C4CF4C0
:1004E000E06C1CEA11541DBF1CEA135594EA0C0F72
:1004F00095EA0C0F00F0DEF82C4481EA030621EAAD
:100500004C5123EA4C5350EA013518BF52EA0335E7
:1005100041F4801143F4801338D0A0FB02CE4FF099
:100520000005E1FB02E506F00042E0FB03E54FF0C9
:100530000006E1FB03569CF0000F18BF4EF0010EC1
:10054000A4F1FF04B6F5007F64F5407404D25FEABD
:100550004E0E6D4146EB060642EAC62141EA555170
:100560004FEAC52040EA5E504FEACE2EB4F1FD0CB2
:1005700088BFBCF5E06F1ED8BEF1004F08BF5FEA30
:10058000500E50F1000041EB045170BD06F00046E2
:1005900046EA010140EA020081EA0301B4EB5C048F
:1005A000C2BFD4EB0C0541EA045170BD41F4801187
:1005B0004FF0000E013C00F3AB8014F1360FDEBFAC
:1005C000002001F0004170BDC4F10004203C35DA88
:1005D0000C341BDC04F11404C4F1200500FA05F30B
:1005E00020FA04F001FA05F240EA020001F00042AC
:1005F00021F0004110EBD37021FA04F642EB060122
:100600005EEA430E08BF20EAD37070BDC4F10C044B
:10061000C4F1200500FA04F320FA05F001FA04F20F
:1006200040EA020001F0004110EBD37041F10001FB
:100630005EEA430E08BF20EAD37070BDC4F1200506
:1006400000FA05F24EEA020E20FA04F301FA05F26E
:1006500043EA020321FA04F001F0004121FA04F216
:1006600020EA020000EBD3705EEA430E08BF20EAE6
:10067000D37070BD94F0000F0FD101F00046400020
:1006800041EB010111F4801F08BF013CF7D041EAA2
:10069000060195F0000F18BF704703F000465200A6
:1006A00043EB030313F4801F08BF013DF7D043EA77
:1006B0000603704794EA0C0F0CEA135518BF95EA2D
:1006C0000C0F0CD050EA410618BF52EA4306D1D1B4
:1006D00081EA030101F000414FF0000070BD50EAD3
:1006E000410606BF1046194652EA430619D094EA5D
:1006F0000C0F02D150EA013613D195EA0C0F05D147
:1007000052EA03361CBF104619460AD181EA03019A
:1007100001F0004141F0FE4141F470014FF0000052
:1007200070BD41F0FE4141F4780170BD70B54FF0ED
:10073000FF0C4CF4E06C1CEA11541DBF1CEA13556D
:1007400094EA0C0F95EA0C0F00F0A7F8A4EB05044F
:1007500081EA030E52EA03354FEA013100F0888046
:100760004FEA03334FF0805545EA131343EA12630F
:100770004FEA022245EA111545EA10654FEA0026C4
:100780000EF000419D4208BF964244F1FD0404F57D
:10079000407402D25B084FEA3202B61A65EB0305D9
:1007A0005B084FEA32024FF480104FF4002CB6EB96
:1007B000020E75EB030E22BFB61A754640EA0C0016
:1007C0005B084FEA3202B6EB020E75EB030E22BF56
:1007D000B61A754640EA5C005B084FEA3202B6EB97
:1007E000020E75EB030E22BFB61A754640EA9C0056
:1007F0005B084FEA3202B6EB020E75EB030E22BF26
:10080000B61A754640EADC0055EA060E18D04FEAE3
:10081000051545EA16754FEA06164FEAC30343EA83
:1008200052734FEAC2025FEA1C1CC0D111F4801F50
:100830000BD141EA00014FF000004FF0004CB6E749
:1008400011F4801F04BF01430020B4F1FD0C88BFE8
:10085000BCF5E06F3FF6AFAEB5EB030C04BFB6EBF3
:10086000020C5FEA500C50F1000041EB045170BDE6
:100870000EF0004E4EEA113114EB5C04C2BFD4EB13
:100880000C0541EA045170BD41F480114FF0000E97
:10089000013C90E645EA060E8DE60CEA135594EA13
:1008A0000C0F08BF95EA0C0F3FF43BAF94EA0C0F16
:1008B0000AD150EA01347FF434AF95EA0C0F7FF48B
:1008C00025AF104619462CE795EA0C0F06D152EADF
:1008D00003353FF4FDAE1046194622E750EA4106C3
:1008E00018BF52EA43067FF4C5AE50EA41047FF4D4
:1008F0000DAF52EA43057FF4EBAE12E74FF0FF3C39
:1009000006E000BF4FF0010C02E000BF4FF0010C09
:100910004DF804CD4FEA410C7FEA6C5C4FEA430C82
:1009200018BF7FEA6C5C1BD001B050EA410C0CBFD1
:1009300052EA430C91EA030F02BF90EA020F002033
:10094000704710F1000F91EA030F58BF994208BF9A
:1009500090422CBFD8176FEAE37040F00100704757
:100960004FEA410C7FEA6C5C02D150EA013C07D1AE
:100970004FEA430C7FEA6C5CD6D152EA033CD3D0F9
:100980005DF8040B704700BF8446104662468C46F3
:100990001946634600E000BF01B5FFF7B7FF002826
:1009A00048BF10F1000F01BD4DF808EDFFF7F4FF4F
:1009B0000CBF012000205DF808FB00BF4DF808EDDA
:1009C000FFF7EAFF34BF012000205DF808FB00BFFD
:1009D0004DF808EDFFF7E0FF94BF012000205DF81F
:1009E00008FB00BF4DF808EDFFF7CEFF94BF0120D4
:1009F00000205DF808FB00BF4DF808EDFFF7C4FFCD
:100A000034BF012000205DF808FB00BF4FEA410C15
:100A10007FEA6C5C02D150EA013C0AD14FEA430CF8
:100A20007FEA6C5C02D152EA033C02D14FF0000035
:100A300070474FF0010070474FEA410212F5001273
:100A400015D211D56FF47873B3EB625212D94FEA15
:100A5000C12343F0004343EA505311F0004F23FAFF
:100A600002F018BF404270474FF00000704750EA54
:100A7000013005D111F0004008BF6FF00040704711
:100A80004FF00000704700BF4FEA4102B2F1E0436F
:100A900024BFB3F5001CDCF1FE5C0DD901F0004C65
:100AA0004FEAC0024CEA5070B2F1004F40EB8300B5
:100AB00008BF20F00100704711F0804F21D113F1E1
:100AC0003872BCBF01F00040704741F480114FEA1A
:100AD0005252C2F11802C2F1200C10FA0CF320FAA3
:100AE00002F018BF40F001004FEAC1234FEAD323C0
:100AF00003FA0CFC40EA0C0023FA02F34FEA43032A
:100B0000CCE77FEA625307D150EA01331EBF4FF0B2
:100B1000FE4040F44000704701F0004040F0FE40CD
:100B200040F40000704700BF80B500AF1E2000F009
:100B3000EFFD00224FF400511C4801F066FE012237
:100B40004FF48051194801F060FE00224FF400611B
:100B5000164801F05AFE00224FF48061134801F05C
:100B600054FE00224FF40041104801F04EFE0122D5
:100B70004FF480410D4801F048FE00224FF48041BF
:100B80000A4801F042FE2821002000F011F80C2153
:100B9000002000F00DF80621002000F009F80121E6
:100BA000002000F005F800BF80BD00BF000C014030
:100BB00080B582B000AF03460A46FB711346BB7195
:100BC000022000F0A5FDFB79002B06D001224FF496
:100BD00000415A4801F019FE05E000224FF400419F
:100BE000564801F012FE97F90630002B06DA012272
:100BF0004FF48061514801F008FE05E000224FF4F7
:100C000080614E4801F001FEBB7903F04003002BE8
:100C100006D001224FF40061484801F0F6FD05E0DE
:100C200000224FF40061454801F0EFFDBB7903F06D
:100C30002003002B06D001224FF480513F4801F0E1
:100C4000E4FD05E000224FF480513C4801F0DDFD59
:100C5000BB7903F01003002B06D001224FF40051A2
:100C6000364801F0D2FD05E000224FF40051334830
:100C700001F0CBFD01224FF48041304801F0C5FD69
:100C800000224FF480412D4801F0BFFDBB7903F0F5
:100C90000803002B06D001224FF48061274801F0A1
:100CA000B4FD05E000224FF48061244801F0ADFD61
:100CB000BB7903F00403002B06D001224FF400613E
:100CC0001E4801F0A2FD05E000224FF400611B4820
:100CD00001F09BFDBB7903F00203002B06D001223B
:100CE0004FF48051154801F090FD05E000224FF4CB
:100CF0008051124801F089FDBB7903F00103002BFC
:100D000006D001224FF400510C4801F07EFD05E0B1
:100D100000224FF40051094801F077FD01224FF401
:100D20008041064801F071FD00224FF480410348E4
:100D300001F06BFD00BF0837BD4680BD000C0140CF
:100D400080B582B000AF03463A60FB710B46BB71C1
:100D5000FB79032B36D801A252F823F06D0D000861
:100D60007D0D00088D0D00089D0D0008BB79803BAE
:100D7000DBB219460020FFF71BFF17E0BB79403BB1
:100D8000DBB219460020FFF713FF0FE0BB79703B81
:100D9000DBB219460020FFF70BFF07E0BB79303BC1
:100DA000DBB219460020FFF703FF00BF0AE03B68F3
:100DB00093F90030DBB219460120FFF7F9FE3B68DA
:100DC00001333B603B6893F90030002BEFD100BF4B
:100DD00000BF0837BD4680BD80B58AB000AF00F0C7
:100DE00035FC00F08DF800F0D9F900F0B9F900F009
:100DF000D9F800F015F9FFF797FE394800F084FDA7
:100E00006421374800F05AFE354800F05DFF034684
:100E1000344A1360324800F025FE324B1B681846F6
:100E2000FFF7E0FA2CA3D3E90023FFF755FB0246B6
:100E30000B4610461946FFF727FE03467B62786A89
:100E4000FFF7F2FA02460B46381D274903F00EFD64
:100E50003B1D1A4600210020FFF772FF234B1A6842
:100E60003B1D2349184603F001FD3B1D1A46002196
:100E70000120FFF765FF1D4B1B681E4AC3F1640389
:100E8000536300211C4802F0FDFA02211B4801F0C7
:100E9000A5FC0346012B0ED1144B1B680A33134AE1
:100EA0001360FA2000F034FC104B1B68642B02D94D
:100EB0000E4B64221A600421104801F08FFC034697
:100EC000012B9AD1094B1B680A3B084A1360FA2090
:100ED00000F01EFC91E700BFE09C11A5BDC1973F4B
:100EE000FC010020B8020020786D000800000020FE
:100EF000846D0008002C01402C020020000C0140F1
:100F000080B594B000AF07F12803282200211846CD
:100F100003F044F807F1140300221A605A609A6043
:100F2000DA601A613B1D00221A605A609A60DA602A
:100F30000223BB620123BB631023FB6300237B649A
:100F400007F12803184601F079FC0346002B01D075
:100F500000F07CF90F237B610023BB610023FB6160
:100F600000233B624FF4E0637B6207F1140300212E
:100F7000184601F0E5FE0346002B01D000F066F9AB
:100F800002237B600023FB603B1D184602F05CF8E7
:100F90000346002B01D000F059F900BF5037BD4681
:100FA00080BD000080B584B000AF3B1D00221A60F8
:100FB0005A609A60184B194A1A60174B00229A60BF
:100FC000154B01221A73144B00221A75124B4FF461
:100FD0006022DA61104B00225A600F4B01221A6125
:100FE0000D4800F0B9FB0346002B01D000F02EF9AC
:100FF00000237B600123BB600723FB603B1D194678
:10100000054800F06DFE0346002B01D000F01EF9EC
:1010100000BF1037BD4680BDFC0100200024014008
:1010200080B596B000AF07F1480300221A605A60FD
:101030009A60DA6007F1400300221A605A6007F1F3
:10104000240300221A605A609A60DA601A615A61B9
:101050009A613B1D20220021184602F09FFF3E4B63
:101060003E4A1A603C4B07225A603B4B00229A6072
:10107000394B6322DA60384B00221A61364B00226A
:101080005A61354B00229A61334802F053F9034606
:10109000002B01D000F0DAF84FF48053BB6407F165
:1010A000480319462C4802F047FB0346002B01D0A9
:1010B00000F0CCF8284802F08CF90346002B01D050
:1010C00000F0C4F800233B6400237B6407F1400375
:1010D0001946214802F08EFE0346002B01D000F095
:1010E000B5F860237B620023BB620023FB62002310
:1010F0003B6300237B630023BB630023FB6307F197
:10110000240300221946144802F058FA0346002B23
:1011100001D000F09BF800237B600023BB6000231C
:10112000FB6000233B6100237B614FF40053BB61F4
:1011300000233B623B1D1946074802F0B3FE0346FD
:10114000002B01D000F082F8034800F02DF900BF19
:101150005837BD4680BD00BF2C020020002C014046
:1011600080B582B000AF0C4B5B690B4A43F00103C2
:101170005361094B5B6903F001037B607B680022CC
:1011800000210C2001F017F80C2001F030F800BF0E
:101190000837BD4680BD00BF0010024080B588B052
:1011A00000AF07F1100300221A605A609A60DA60FB
:1011B000244B9B69234A43F020039361214B9B6995
:1011C00003F02003FB60FB681E4B9B691D4A43F044
:1011D000040393611B4B9B6903F00403BB60BB6872
:1011E000184B9B69174A43F008039361154B9B69A1
:1011F00003F008037B607B6800224FF47C411248B7
:1012000001F003FB06233B6100237B610223BB61EA
:1012100007F1100319460C4801F064F94FF47C43C0
:101220003B6101237B610023BB610223FB6107F16A
:1012300010031946044801F055F900BF2037BD4698
:1012400080BD00BF00100240000C014080B400AF20
:1012500072B600BFFEE7000080B483B000AF0E4B53
:101260009B690D4A43F0010393610B4B9B6903F0AB
:1012700001037B607B68084BDB69074A43F08053BE
:10128000D361054BDB6903F080533B603B6800BFD3
:101290000C37BD4680BC70470010024080B588B056
:1012A00000AF786007F1100300221A605A609A605C
:1012B000DA607B681B68144A934221D1134B9B6907
:1012C000124A43F400739361104B9B6903F400735B
:1012D000FB60FB680D4B9B690C4A43F00403936170
:1012E0000A4B9B6903F00403BB60BB6801233B61AD
:1012F00003237B6107F110031946054801F0F2F85A
:1013000000BF2037BD4680BD0024014000100240D0
:101310000008014080B584B000AF78607B681B682E
:101320001D4A934233D11D4B9B691C4A43F4006311
:1013300093611A4B9B6903F40063FB60FB68184BD5
:10134000184A1A60164B10225A60154B00229A60F8
:10135000134B8022DA60124B4FF480721A61104BEB
:101360004FF480625A610E4B00229A610C4B0022AE
:10137000DA610B4800F056FF0346002B01D0FFF75F
:1013800065FF7B68064A5A62054A7B68536200BF64
:101390001037BD4680BD00BF002C01400010024048
:1013A000740200201C00024080B588B000AF786055
:1013B00007F1100300221A605A609A60DA607B68B5
:1013C0001B68104A934218D10F4B9B690E4A43F099
:1013D000040393610C4B9B6903F00403FB60FB68FF
:1013E0004FF480733B6102237B610223FB6107F1B1
:1013F00010031946054801F075F800BF2037BD46B7
:1014000080BD00BF002C01400010024000080140D8
:1014100080B400AFFEE780B400AFFEE780B400AF59
:10142000FEE780B400AFFEE780B400AFFEE780B413
:1014300000AF00BFBD4680BC704780B400AF00BFA6
:10144000BD4680BC704780B400AF00BFBD4680BCC5
:10145000704780B500AF00F03FF900BF80BD0000CD
:1014600080B500AF024800F037FF00BF80BD00BF6D
:101470007402002080B400AF01231846BD4680BC32
:10148000704780B582B000AF7860396002F05CFDD3
:10149000034616221A604FF0FF3318460837BD4640
:1014A00080BD80B582B000AF78604FF0FF317868C2
:1014B000FFF7E7FFFEE780B586B000AFF860B960E0
:1014C0007A6000237B610AE0AFF300800146BB68CD
:1014D0005A1CBA60CAB21A707B6901337B617A699F
:1014E0007B689A42F0DB7B6818461837BD4680BDA2
:1014F00080B586B000AFF860B9607A6000237B6188
:1015000009E0BB685A1CBA601B781846AFF300802C
:101510007B6901337B617A697B689A42F1DB7B6886
:1015200018461837BD4680BD80B483B000AF7860E0
:101530004FF0FF3318460C37BD4680BC704780B46F
:1015400083B000AF786039603B684FF400525A6056
:10155000002318460C37BD4680BC704780B483B06A
:1015600000AF7860012318460C37BD4680BC704739
:1015700080B485B000AFF860B9607A600023184687
:101580001437BD4680BC704780B586B000AF786028
:10159000144A154BD31A7B617B693B61134B1B6863
:1015A000002B02D1114B124A1A60104B1A687B684B
:1015B00013443A699A4207D202F0C6FC03460C2251
:1015C0001A604FF0FF3309E0084B1B68FB60074BC4
:1015D0001A687B681344054A1360FB68184618377D
:1015E000BD4680BD0028002000040000BC02002091
:1015F000D802002080B400AF00BFBD4680BC704759
:101600000C480D490D4A002302E0D458C45004335D
:10161000C4188C42F9D30A4A0A4C002301E0136033
:101620000432A242FBD3FFF7E5FF02F093FCFFF781
:10163000D3FB704700000020E0010020AC710008DF
:10164000E0010020D4020020FEE7000080B500AFDA
:10165000084B1B68074A43F010031360032000F097
:101660009FFD0F2000F008F8FFF7F6FD0023184655
:1016700080BD00BF0020024080B582B000AF78601E
:10168000124B1A68124B1B7819464FF47A73B3FB4E
:10169000F1F3B2FBF3F3184600F0B7FD0346002B5D
:1016A00001D001230EE07B680F2B0AD80022796855
:1016B0004FF0FF3000F07FFD064A7B681360002387
:1016C00000E0012318460837BD4680BD0400002015
:1016D0000C0000200800002080B400AF054B1B78F0
:1016E0001A46054B1B681344034A136000BFBD46EE
:1016F00080BC70470C000020C002002080B400AF06
:10170000024B1B681846BD4680BC7047C0020020D3
:1017100080B584B000AF7860FFF7F0FFB8607B68F9
:10172000FB60FB68B3F1FF3F05D00A4B1B781A46FC
:10173000FB681344FB6000BFFFF7E0FF0246BB6895
:10174000D31AFA689A42F7D800BF00BF1037BD46D7
:1017500080BD00BF0C00002080B586B000AF78606F
:101760000023FB7500233B610023BB600023FB606B
:101770007B68002B01D10123BEE07B689B68002BB6
:101780007B689B6A002B09D17B680022DA627B6848
:10179000002283F824207868FFF780FD786800F045
:1017A000F1FB0346FB757B689B6A03F01003002B7B
:1017B00040F09980FB7D002B40F095807B689B6A10
:1017C00023F4885323F0020343F002027B689A62F9
:1017D0007B685A687B68DB691A437B681B7B5B000C
:1017E0001343BA681343BB607B689B68B3F5807F83
:1017F00003D07B689B68012B02D14FF4807300E01B
:1018000000233A6913433B617B681B7D012B19D18F
:101810007B681B7B002B09D17B689B69013B5A03CA
:101820003B69134343F400633B610BE07B689B6AB5
:1018300043F020027B689A627B68DB6A43F0010216
:101840007B68DA627B681B685B6823F469417B68AC
:101850001B683A690A435A607B681B689A68284B80
:1018600013407A681268B9680B4393607B689B6881
:10187000B3F5807F03D07B689B68012B04D17B6824
:101880001B69013B1B05FB607B681B68DB6A23F45B
:1018900070017B681B68FA680A43DA627B681B6820
:1018A0009A68184B1340BA689A420BD17B680022A1
:1018B000DA627B689B6A23F0030343F001027B68D2
:1018C0009A6218E07B689B6A23F0120343F01002CF
:1018D0007B689A627B68DB6A43F001027B68DA62AC
:1018E0000123FB7507E07B689B6A43F010027B686D
:1018F0009A620123FB75FB7D18461837BD4680BDF3
:10190000FDF7E1FFFE0E1FFF80B584B000AF7860E9
:101910000023FB737B6893F82430012B01D1022351
:1019200098E07B68012283F82420786800F0D0FAE0
:101930000346FB73FB7B002B40F087807B689B6A30
:1019400023F4407323F0010343F480727B689A62AE
:101950007B681B68414A934205D1414B5B6803F4A5
:101960007023002B15D17B689B6A23F480127B685F
:101970009A627B681B685B6803F48063002B26D047
:101980007B689B6A23F4405343F480527B689A62DD
:101990001DE07B689B6A43F480127B689A627B68D7
:1019A0001B682F4A934204D07B681B682B4A9342E2
:1019B0000DD12B4B5B6803F48063002B07D07B6851
:1019C0009B6A23F4405343F480527B689A627B689D
:1019D0009B6A03F48053002B06D07B68DB6A23F0FC
:1019E00006027B68DA6202E07B680022DA627B68CA
:1019F000002283F824207B681B686FF002021A60C3
:101A00007B681B689B6803F46023B3F5602F13D1D8
:101A10007B681B68114A934205D1114B5B6803F444
:101A20007023002B08D17B681B689A687B681B6851
:101A300042F4A0029A600CE07B681B689A687B689D
:101A40001B6842F480129A6003E07B68002283F8EE
:101A50002420FB7B18461037BD4680BD002801407E
:101A60000024014080B584B000AF78600023FB7390
:101A70007B6893F82430012B01D102231AE07B68A4
:101A8000012283F82420786800F07CFA0346FB7377
:101A9000FB7B002B09D17B689B6A23F4885323F0DE
:101AA000010343F001027B689A627B68002283F89D
:101AB0002420FB7B18461037BD4680BD90B587B00B
:101AC00000AF7860396000237B610023FB60002356
:101AD0003B61FFF713FE78617B681B689B6803F42A
:101AE0008073002B0BD07B689B6A43F020027B68DD
:101AF0009A627B68002283F824200123D3E07B686C
:101B00001B685B6803F48073002B31D17B681B6812
:101B1000DB6A03F47003002B2AD121E03B68B3F1A8
:101B2000FF3F1DD03B68002B07D0FFF7E7FD0246C3
:101B30007B69D31A3A689A4212D27B681B681B6889
:101B400003F00203002B0BD17B689B6A43F0040275
:101B50007B689A627B68002283F824200323A2E03A
:101B60007B681B681B6803F00203002BD6D070E073
:101B70004F4B1C68022001F01DFB0346B4FBF3F23F
:101B80007B681B6819694B4B0B40002B18D17B6895
:101B90001B68D968484B0B40002B11D17B681B6830
:101BA0001969464B0B40002B08D17B681B68D9682C
:101BB000434B0B40002B01D1142320E029231EE0CE
:101BC0007B681B6819693D4B0B40002B06D17B6875
:101BD0001B68D9683A4B0B40002B0DD07B681B6803
:101BE0001969384B0B40002B08D17B681B68D968FA
:101BF000344B0B40002B01D1542300E0FC2302FBAB
:101C000003F33B6121E03B68B3F1FF3F1AD03B682F
:101C1000002B07D0FFF772FD02467B69D31A3A68A2
:101C20009A420FD2FB683A699A420BD97B689B6A49
:101C300043F004027B689A627B68002283F82420C8
:101C4000032330E0FB680133FB60FB683A699A428A
:101C5000D9D87B681B686FF012021A607B689B6A98
:101C600043F400727B689A627B681B689B6803F48C
:101C70006023B3F5602F15D17B681B7B002B11D13E
:101C80007B689B6A23F480727B689A627B689B6A9C
:101C900003F48053002B05D17B689B6A43F001025B
:101CA0007B689A62002318461C37BD4690BD00BF72
:101CB00004000020244992242449920092244912CD
:101CC000922449004992240080B483B000AF786028
:101CD0007B681B68DB6C18460C37BD4680BC7047C0
:101CE00080B485B000AF786039600023FB730023B7
:101CF000BB607B6893F82430012B01D10223DCE028
:101D00007B68012283F824203B685B68062B1CD883
:101D10007B681B68596B3B685A6813469B001344E9
:101D2000053B1F2202FA03F3DB4319403B681868A6
:101D30003B685A6813469B001344053B00FA03F2C4
:101D40007B681B680A435A633CE03B685B680C2B6A
:101D50001CD87B681B68196B3B685A6813469B004C
:101D60001344233B1F2202FA03F3DB4319403B6871
:101D700018683B685A6813469B001344233B00FADB
:101D800003F27B681B680A431A631BE07B681B68CD
:101D9000D96A3B685A6813469B001344413B1F2293
:101DA00002FA03F3DB4319403B6818683B685A6842
:101DB00013469B001344413B00FA03F27B681B6807
:101DC0000A43DA623B681B68092B1CD97B681B68D5
:101DD000D9683B681A6813465B0013441E3B072210
:101DE00002FA03F3DB4319403B6898683B681A68C2
:101DF00013465B0013441E3B00FA03F27B681B682A
:101E00000A43DA6019E07B681B6819693B681A6845
:101E100013465B001344072202FA03F3DB43194025
:101E20003B6898683B681A6813465B00134400FAE5
:101E300003F27B681B680A431A613B681B68102B1E
:101E400003D03B681B68112B32D17B681B681D4A8D
:101E5000934225D17B681B689B6803F40003002B29
:101E600026D17B681B689A687B681B6842F4000275
:101E70009A603B681B68102B1AD1134B1B68134ADE
:101E8000A2FB03239A0C13469B0013445B00BB6028
:101E900002E0BB68013BBB60BB68002BF9D107E0E7
:101EA0007B689B6A43F020027B689A620123FB7384
:101EB0007B68002283F82420FB7B18461437BD463C
:101EC00080BC7047002401400400002083DE1B43D7
:101ED00080B584B000AF78600023FB600023BB6056
:101EE0007B681B689B6803F00103012B40D07B6873
:101EF0001B689A687B681B6842F001029A601F4B5E
:101F00001B681F4AA2FB03239B0CBB6002E0BB685B
:101F1000013BBB60BB68002BF9D1FFF7EFFBF8601A
:101F20001FE0FFF7EBFB0246FB68D31A022B18D920
:101F30007B681B689B6803F00103012B11D07B6851
:101F40009B6A43F010027B689A627B68DB6A43F00D
:101F500001027B68DA627B68002283F82420012377
:101F600007E07B681B689B6803F00103012BD8D155
:101F7000002318461037BD4680BD00BF0400002076
:101F800083DE1B4380B584B000AF78600023FB6024
:101F90007B681B689B6803F00103012B2ED17B68D3
:101FA0001B689A687B681B6822F001029A60FFF741
:101FB000A5FBF8601BE0FFF7A1FB0246FB68D31A04
:101FC000022B14D97B681B689B6803F00103012B6B
:101FD0000DD17B689B6A43F010027B689A627B6834
:101FE000DB6A43F001027B68DA62012307E07B6869
:101FF0001B689B6803F00103012BDCD0002318460B
:102000001037BD4680BD000080B485B000AF786059
:102010007B6803F00703FB600C4BDB68BB60BA68AE
:102020004FF6FF031340BB60FB681A02BB68134303
:1020300043F0BF6343F40033BB60044ABB68D36022
:1020400000BF1437BD4680BC704700BF00ED00E004
:1020500080B400AF044BDB681B0A03F0070318468B
:10206000BD4680BC704700BF00ED00E080B483B087
:1020700000AF0346FB7197F90730002B0BDBFB79B0
:1020800003F01F02064997F907305B09012000FAA7
:1020900002F241F8232000BF0C37BD4680BC7047D8
:1020A00000E100E080B483B000AF03463960FB710B
:1020B00097F90730002B0ADB3B68DAB20C4997F935
:1020C00007301201D2B20B4483F800230AE03B68C8
:1020D000DAB20849FB7903F00F03043B1201D2B2D4
:1020E0000B441A7600BF0C37BD4680BC704700BF5A
:1020F00000E100E000ED00E080B489B000AFF860DE
:10210000B9607A60FB6803F00703FB61FB69C3F108
:102110000703042B28BF0423BB61FB690433062B90
:1021200002D9FB69033B00E000237B614FF0FF32E3
:10213000BB6902FA03F3DA43BB681A407B699A4031
:102140004FF0FF317B6901FA03F3D9437B680B4001
:10215000134318462437BD4680BC704780B582B013
:1021600000AF78607B68013BB3F1807F01D301232E
:102170000FE00A4A7B68013B53600F214FF0FF30AC
:10218000FFF790FF054B00229A60044B07221A606C
:10219000002318460837BD4680BD00BF10E000E0B0
:1021A00080B582B000AF78607868FFF72DFF00BF80
:1021B0000837BD4680BD80B586B000AF0346B96024
:1021C0007A60FB7300237B61FFF742FF78617A68D6
:1021D000B9687869FFF790FF024697F90F3011460A
:1021E0001846FFF75FFF00BF1837BD4680BD80B5BA
:1021F00082B000AF0346FB7197F907301846FFF72E
:1022000035FF00BF0837BD4680BD80B582B000AF46
:1022100078607868FFF7A2FF034618460837BD4686
:1022200080BD000080B485B000AF78600023FB6003
:102230007B68002B01D1012343E07B681B681A46B1
:10224000224B1344224AA2FB03231B099A007B68FA
:102250001A647B681F4ADA637B68022283F82120B4
:102260007B681B681B68FB60FB6823F47F5323F0CB
:102270003003FB607B685A687B689B681A437B6805
:10228000DB681A437B681B691A437B685B691A43E6
:102290007B689B691A437B68DB691343FA681343C5
:1022A000FB607B681B68FA681A607B6800229A638F
:1022B0007B68012283F821207B68002283F820209C
:1022C000002318461437BD4680BC7047F8FFFDBF99
:1022D000CDCCCCCC0000024080B584B000AF78609B
:1022E0007B68DB6B1B68FB607B681B681B68BB60E3
:1022F0007B681B6C04229A40FB681340002B4FD074
:10230000BB6803F00403002B4AD07B681B681B6882
:1023100003F02003002B07D17B681B681A687B68D9
:102320001B6822F004021A607B681B68664A9342AD
:1023300029D07B681B68654A934222D07B681B6862
:10234000634A93421AD07B681B68624A934212D058
:102350007B681B68604A93420AD07B681B685F4AAF
:10236000934202D14FF480030EE04FF080630BE004
:102370004FF4802308E04FF4804305E04FF480637E
:1023800002E0402300E00423554A53607B68DB6A87
:10239000002B00F094807B68DB6A786898478EE0B9
:1023A0007B681B6C02229A40FB681340002B56D0BE
:1023B000BB6803F00203002B51D07B681B681B68CD
:1023C00003F02003002B0BD17B681B681A687B6825
:1023D0001B6822F00A021A607B68012283F8212020
:1023E0007B681B68384A934229D07B681B68374A50
:1023F000934222D07B681B68354A93421AD07B688F
:102400001B68344A934212D07B681B68324A93425D
:102410000AD07B681B68314A934202D14FF4001303
:102420000EE04FF000730BE04FF4003308E04FF480
:10243000005305E04FF4007302E0202300E0022384
:10244000274A53607B68002283F820207B689B6AC0
:10245000002B34D07B689B6A786898472FE07B68B4
:102460001B6C08229A40FB681340002B28D0BB68E5
:1024700003F00803002B23D07B681B681A687B6875
:102480001B6822F00E021A607B681A6C7B68DB6B9B
:10249000012101FA02F25A607B6801229A637B688B
:1024A000012283F821207B68002283F820207B68AA
:1024B0001B6B002B04D07B681B6B7868984700BFB0
:1024C00000BF1037BD4680BD080002401C0002401E
:1024D0003000024044000240580002406C000240BC
:1024E0000000024080B48BB000AF786039600023F8
:1024F0007B6200233B6261E101227B6A02FA03F303
:10250000FB613B681B68FA691340BB61BA69FB69F0
:102510009A4240F050813B685B68974A93425ED094
:10252000954A934275D8954A934258D0934A93421C
:102530006FD8934A934252D0914A934269D8914AB4
:1025400093424CD08F4A934263D88F4A934246D0ED
:102550008D4A93425DD8122B2AD8122B59D801A24A
:1025600052F823F0DF250008B9250008CB25000824
:102570000D2600081326000813260008132600085D
:102580001326000813260008132600081326000847
:102590001326000813260008132600081326000837
:1025A0001326000813260008C1250008D5250008B9
:1025B000764A934213D02CE03B68DB683B6229E00B
:1025C0003B68DB6804333B6224E03B68DB6808332C
:1025D0003B621FE03B68DB680C333B621AE03B6800
:1025E0009B68002B02D104233B6213E03B689B688D
:1025F000012B05D108233B627B68FA691A6109E067
:1026000008233B627B68FA695A6103E000233B625E
:1026100000E000BFBB69FF2B01D87B6801E07B684D
:1026200004337B61BB69FF2B02D87B6A9B0002E00D
:102630007B6A083B9B003B617B691A680F213B6901
:1026400001FA03F3DB431A40396A3B6901FA03F3E9
:102650001A437B691A603B685B6803F08053002B68
:1026600000F0A9804A4B9B69494A43F001039361FA
:10267000474B9B6903F00103BB60BB68454A7B6A1B
:102680009B08023352F82330FB607B6A03F003039C
:102690009B000F2202FA03F3DB43FA681340FB604E
:1026A0007B683D4A93420DD07B683C4A934207D0F9
:1026B0007B683B4A934201D1022304E0032302E0FA
:1026C000012300E000237A6A02F0030292009340A3
:1026D000FA681343FB602F497B6A9B080233FA6850
:1026E00041F823203B685B6803F48033002B06D05D
:1026F0002C4B1A682B49BB6913430B6006E0294B2E
:102700001A68BB69DB43274913400B603B685B6871
:1027100003F40033002B06D0224B5A682149BB69D1
:1027200013434B6006E01F4B5A68BB69DB431D49EE
:1027300013404B603B685B6803F48013002B06D0AA
:10274000184B9A681749BB6913438B6006E0154B19
:102750009A68BB69DB43134913408B603B685B6835
:1027600003F40013002B1FD00E4BDA680D49BB6930
:102770001343CB601FE000BF000032100000311097
:1027800000002210000021100000121000001110A3
:10279000001002400000014000080140000C014010
:1027A00000100140000401400B4BDA68BB69DB43B9
:1027B00009491340CB607B6A01337B623B681A682E
:1027C0007B6A22FA03F3002B7FF496AE00BF00BFB2
:1027D0002C37BD4680BC70470004014080B485B0F2
:1027E00000AF78600B467B807B689A687B881340DB
:1027F000002B02D00123FB7301E00023FB73FB7B62
:1028000018461437BD4680BC704780B483B000AF13
:1028100078600B467B8013467B707B78002B03D05F
:102820007A887B681A6103E07B881A047B681A61E6
:1028300000BF0C37BD4680BC7047000080B586B035
:1028400000AF78607B68002B01D1012372E27B68C6
:102850001B6803F00103002B00F08780924B5B683C
:1028600003F00C03042B0CD08F4B5B6803F00C03BC
:10287000082B12D18C4B5B6803F48033B3F5803F97
:102880000BD1894B1B6803F40033002B6CD07B68A1
:102890005B68002B68D101234CE27B685B68B3F571
:1028A000803F06D1804B1B687F4A43F4803313601E
:1028B0002EE07B685B68002B0CD17B4B1B687A4A4F
:1028C00023F480331360784B1B68774A23F480230A
:1028D00013601DE07B685B68B3F5A02F0CD1724BD1
:1028E0001B68714A43F4802313606F4B1B686E4A68
:1028F00043F4803313600BE06B4B1B686A4A23F48C
:1029000080331360684B1B68674A23F4802313608D
:102910007B685B68002B13D0FEF7F0FE386108E09F
:10292000FEF7ECFE02463B69D31A642B01D9032360
:1029300000E25D4B1B6803F40033002BF0D014E081
:10294000FEF7DCFE386108E0FEF7D8FE02463B6980
:10295000D31A642B01D90323ECE1534B1B6803F416
:102960000033002BF0D100E000BF7B681B6803F050
:102970000203002B63D04C4B5B6803F00C03002B6D
:102980000BD0494B5B6803F00C03082B1CD1464B62
:102990005B6803F48033002B16D1434B1B6803F0B4
:1029A0000203002B05D07B681B69012B01D001239A
:1029B000C0E13D4B1B6823F0F8027B685B69DB00DC
:1029C000394913430B603AE07B681B69002B20D028
:1029D000364B01221A60FEF791FE386108E0FEF7DF
:1029E0008DFE02463B69D31A022B01D90323A1E1D4
:1029F0002D4B1B6803F00203002BF0D02A4B1B6801
:102A000023F0F8027B685B69DB00274913430B6006
:102A100015E0264B00221A60FEF770FE386108E0D0
:102A2000FEF76CFE02463B69D31A022B01D9032341
:102A300080E11D4B1B6803F00203002BF0D17B6883
:102A40001B6803F00803002B3AD07B689B69002BBE
:102A500019D0174B01221A60FEF750FE386108E0CA
:102A6000FEF74CFE02463B69D31A022B01D9032321
:102A700060E10D4B5B6A03F00203002BF0D00120F4
:102A800000F0C4FA1CE00A4B00221A60FEF736FE82
:102A900038610FE0FEF732FE02463B69D31A022B83
:102AA00008D9032346E100BF001002400000424263
:102AB00080044242924B5B6A03F00203002BE9D18F
:102AC0007B681B6803F00403002B00F0A680002342
:102AD000FB758B4BDB6903F08053002B0DD1884BCA
:102AE000DB69874A43F08053D361854BDB6903F090
:102AF0008053BB60BB680123FB75824B1B6803F4EA
:102B00008073002B18D17F4B1B687E4A43F480737F
:102B10001360FEF7F3FD386108E0FEF7EFFD0246B3
:102B20003B69D31A642B01D9032303E1754B1B685E
:102B300003F48073002BF0D07B68DB68012B06D197
:102B40006F4B1B6A6E4A43F0010313622DE07B68F2
:102B5000DB68002B0CD16A4B1B6A694A23F0010326
:102B60001362674B1B6A664A23F0040313621CE07E
:102B70007B68DB68052B0CD1614B1B6A604A43F014
:102B8000040313625E4B1B6A5D4A43F00103136248
:102B90000BE05B4B1B6A5A4A23F001031362584B4C
:102BA0001B6A574A23F0040313627B68DB68002B1F
:102BB00015D0FEF7A3FD38610AE0FEF79FFD02463F
:102BC0003B69D31A41F28832934201D90323B1E021
:102BD0004B4B1B6A03F00203002BEED014E0FEF710
:102BE0008DFD38610AE0FEF789FD02463B69D31A84
:102BF00041F28832934201D903239BE0404B1B6A88
:102C000003F00203002BEED1FB7D012B05D13C4BE1
:102C1000DB693B4A23F08053D3617B68DB69002B7F
:102C200000F08780364B5B6803F00C03082B61D003
:102C30007B68DB69022B46D1334B00221A60FEF71A
:102C40005DFD386108E0FEF759FD02463B69D31A85
:102C5000022B01D903236DE0294B1B6803F000739D
:102C6000002BF0D17B681B6AB3F5803F08D1244B61
:102C70005B6823F400327B689B68214913434B60F7
:102C80001F4B5B6823F474127B68196A7B685B6A6C
:102C90000B431B4913434B601B4B01221A60FEF789
:102CA0002DFD386108E0FEF729FD02463B69D31A85
:102CB000022B01D903233DE0114B1B6803F0007385
:102CC000002BF0D035E0104B00221A60FEF716FD05
:102CD000386108E0FEF712FD02463B69D31A022B69
:102CE00001D9032326E0064B1B6803F00073002B79
:102CF000F0D11EE07B68DB69012B07D1012319E0CD
:102D00000010024000700040600042420B4B5B68C4
:102D1000FB60FB6803F480327B681B6A9A4206D131
:102D2000FB6803F470127B685B6A9A4201D001234E
:102D300000E0002318461837BD4680BD0010024051
:102D400080B584B000AF786039607B68002B01D11A
:102D50000123D0E06A4B1B6803F007033A689A42EC
:102D600010D9674B1B6823F0070265493B68134382
:102D70000B60634B1B6803F007033A689A4201D06B
:102D80000123B8E07B681B6803F00203002B20D00E
:102D90007B681B6803F00403002B05D0594B5B686C
:102DA000584A43F4E06353607B681B6803F00803F0
:102DB000002B05D0534B5B68524A43F46053536079
:102DC000504B5B6823F0F0027B689B684D491343CE
:102DD0004B607B681B6803F00103002B40D07B68CD
:102DE0005B68012B07D1474B1B6803F40033002BB2
:102DF00015D101237FE07B685B68022B07D1414B33
:102E00001B6803F00073002B09D1012373E03D4BD5
:102E10001B6803F00203002B01D101236BE0394B47
:102E20005B6823F003027B685B68364913434B60A1
:102E3000FEF764FCF8600AE0FEF760FC0246FB68FF
:102E4000D31A41F28832934201D9032353E02D4B28
:102E50005B6803F00C027B685B689B009A42EBD1D5
:102E6000274B1B6803F007033A689A4210D2244BA1
:102E70001B6823F0070222493B6813430B60204B79
:102E80001B6803F007033A689A4201D0012332E03D
:102E90007B681B6803F00403002B08D0194B5B68A8
:102EA00023F4E0627B68DB68164913434B607B6860
:102EB0001B6803F00803002B09D0124B5B6823F456
:102EC00060527B681B69DB000E4913434B6000F0C6
:102ED00021F802460B4B5B681B0903F00F030A49FC
:102EE000CB5C22FA03F3094A1360094B1B681846AE
:102EF000FEF7C2FB002318461037BD4680BD00BF59
:102F00000020024000100240B06D000804000020C4
:102F10000800002090B48AB000AF294B3C1D0FCBB5
:102F200084E80F0040F201233B800023FB61002373
:102F3000BB6100237B6200237B6100233B62214B4A
:102F40005B68FB61FB6903F00C03042B02D0082BC8
:102F500003D02BE01C4B3B622BE0FB699B0C03F086
:102F60000F0328333B4413F8243C7B61FB6903F4D3
:102F70008033002B12D0134B5B685B0C03F0010312
:102F800028333B4413F8283CBB617B690E4A03FBA2
:102F900002F2BB69B2FBF3F37B6204E07B690B4A8C
:102FA00002FB03F37B627B6A3B6202E0064B3B62FF
:102FB00000BF3B6A18462837BD4690BC704700BF2B
:102FC000906D00080010024000127A0000093D00D8
:102FD00080B400AF024B1B681846BD4680BC7047EA
:102FE0000400002080B500AFFFF7F2FF0246054B5A
:102FF0005B68DB0A03F007030349CB5C22FA03F3A7
:10300000184680BD00100240C06D000880B485B035
:1030100000AF78600A4B1B680A4AA2FB03235B0AD5
:103020007A6802FB03F3FB6000BFFB685A1EFA607C
:10303000002BF9D100BF00BF1437BD4680BC7047DC
:1030400004000020D34D621080B586B000AF7860D8
:1030500000233B610023FB607B681B6803F00103D6
:10306000002B7DD00023FB754F4BDB6903F08053B1
:10307000002B0DD14C4BDB694B4A43F08053D3619D
:10308000494BDB6903F08053BB60BB680123FB75D0
:10309000464B1B6803F48073002B18D1434B1B680D
:1030A000424A43F480731360FEF728FB386108E05E
:1030B000FEF724FB02463B69D31A642B01D9032394
:1030C0006DE03A4B1B6803F48073002BF0D0364B55
:1030D0001B6A03F44073FB60FB68002B2ED07B68F7
:1030E0005B6803F44073FA689A4227D02E4B1B6A40
:1030F00023F44073FB602E4B01221A602C4B0022FC
:103100001A60294AFB681362FB6803F00103002B75
:1031100014D0FEF7F3FA38610AE0FEF7EFFA024640
:103120003B69D31A41F28832934201D9032336E036
:103130001D4B1B6A03F00203002BEED01A4B1B6AD7
:1031400023F440727B685B68174913430B62FB7D75
:10315000012B05D1144BDB69134A23F08053D36153
:103160007B681B6803F00203002B08D00E4B5B68E2
:1031700023F440427B689B680B4913434B607B6898
:103180001B6803F01003002B08D0074B5B6823F487
:1031900080027B68DB68044913434B6000231846B8
:1031A0001837BD4680BD00BF0010024000700040CF
:1031B0004004424290B58DB000AF7860584B07F1A3
:1031C0000C040FCB84E80F0040F201233B81002365
:1031D0007B620023FB6200233B620023FB61002330
:1031E000BB627B68102B0AD07B68102B00F28E80AC
:1031F0007B68012B49D07B68022B79D086E0494B54
:103200005B68FB61474B1B6803F08073002B7FD02A
:10321000FB699B0C03F00F0330333B4413F8243C51
:103220003B62FB6903F48033002B17D03D4B5B6896
:103230005B0C03F0010330333B4413F8283C7B6202
:10324000FB6903F48033002B0DD0374A7B6AB2FB55
:10325000F3F23B6A02FB03F3FB6204E03B6A334A8E
:1032600002FB03F3FB622F4B5B6803F48003B3F5AF
:10327000800F02D1FB6ABB624AE0FB6A5B002C4A0A
:10328000A2FB03235B08BB6242E0264B1B6AFB6187
:10329000FB6903F44073B3F5807F08D1FB6903F049
:1032A0000203002B03D04FF40043BB621FE0FB6915
:1032B00003F44073B3F5007F09D11A4B5B6A03F046
:1032C0000203002B03D049F64043BB620FE0FB69C9
:1032D00003F44073B3F5407F1CD1124B1B6803F419
:1032E0000033002B16D04FF22443BB6212E011E0F2
:1032F000FFF778FE02460B4B5B689B0B03F0030362
:1033000001335B00B2FBF3F3BB6204E000BF02E0F9
:1033100000BF00E000BFBB6A18463437BD4690BD11
:10332000A06D00080010024000127A0000093D0064
:10333000ABAAAAAA80B582B000AF78607B68002BE8
:1033400001D1012341E07B6893F83D30DBB2002BD3
:1033500006D17B68002283F83C207868FDF7DAFF0D
:103360007B68022283F83D207B681A687B680433FF
:103370001946104600F0A4FA7B68012283F8462023
:103380007B68012283F83E207B68012283F83F207E
:103390007B68012283F840207B68012283F841206A
:1033A0007B68012283F842207B68012283F8432056
:1033B0007B68012283F844207B68012283F8452042
:1033C0007B68012283F83D20002318460837BD465C
:1033D00080BD80B582B000AF78607B68002B01D1E2
:1033E000012341E07B6893F83D30DBB2002B06D12E
:1033F0007B68002283F83C20786800F039F87B680D
:10340000022283F83D207B681A687B6804331946E2
:10341000104600F055FA7B68012283F846207B684D
:10342000012283F83E207B68012283F83F207B68DD
:10343000012283F840207B68012283F841207B68C9
:10344000012283F842207B68012283F843207B68B5
:10345000012283F844207B68012283F845207B68A1
:10346000012283F83D20002318460837BD4680BD61
:1034700080B483B000AF786000BF0C37BD4680BC1D
:103480007047000080B584B000AF786039603B6859
:10349000002B09D17B6893F83E30DBB2012B14BFBF
:1034A00001230023DBB222E03B68042B09D17B68B7
:1034B00093F83F30DBB2012B14BF01230023DBB2B2
:1034C00015E03B68082B09D17B6893F84030DBB2EC
:1034D000012B14BF01230023DBB208E07B6893F8C3
:1034E0004130DBB2012B14BF01230023DBB2002BE0
:1034F00001D0012359E03B68002B04D17B680222F4
:1035000083F83E2013E03B68042B04D17B68022241
:1035100083F83F200BE03B68082B04D17B68022234
:1035200083F8402003E07B68022283F841207B6817
:103530001B6801223968184600F038FC7B681B685C
:103540001C4A934207D17B681B685A6C7B681B68D6
:1035500042F400425A647B681B68164A934209D0C1
:103560007B681B68B3F1804F04D07B681B68124AEC
:10357000934211D17B681B689B6803F00703FB60D3
:10358000FB68062B10D07B681B681A687B681B6879
:1035900042F001021A6007E07B681B681A687B68CA
:1035A0001B6842F001021A60002318461037BD461E
:1035B00080BD00BF002C01400004004080B584B0F5
:1035C00000AFF860B9607A60FB6893F83C30012B7B
:1035D00001D10223ACE0FB68012283F83C207B6828
:1035E0000C2B00F29F8001A252F823F02136000834
:1035F0002537000825370008253700086136000800
:10360000253700082537000825370008A3360008AD
:10361000253700082537000825370008E33600085D
:10362000FB681B68B968184600F0A2F9FB681B68C4
:103630009A69FB681B6842F008029A61FB681B6884
:103640009A69FB681B6822F004029A61FB681B6898
:103650009969BB681A69FB681B680A439A6162E052
:10366000FB681B68B968184600F0E8F9FB681B683E
:103670009A69FB681B6842F400629A61FB681B68E8
:103680009A69FB681B6822F480629A61FB681B6878
:103690009969BB681B691A02FB681B680A439A6137
:1036A00041E0FB681B68B968184600F031FAFB6816
:1036B0001B68DA69FB681B6842F00802DA61FB6884
:1036C0001B68DA69FB681B6822F00402DA61FB6898
:1036D0001B68D969BB681A69FB681B680A43DA6111
:1036E00021E0FB681B68B968184600F07BFAFB68AC
:1036F0001B68DA69FB681B6842F40062DA61FB68E8
:103700001B68DA69FB681B6822F48062DA61FB6877
:103710001B68D969BB681B691A02FB681B680A43EE
:10372000DA6100E000BFFB68002283F83C20002340
:1037300018461037BD4680BD80B584B000AF7860B4
:1037400039607B6893F83C30012B01D10223B3E050
:103750007B68012283F83C207B68022283F83D20AD
:103760007B681B689B68FB60FB6823F07703FB604A
:10377000FB6823F47F43FB607B681B68FA689A60F0
:103780003B681B68B3F5005F3ED0B3F5005F00F205
:103790008780B3F5805F00F08580B3F5805F7FD8C8
:1037A000702B1AD0702B7BD8602B50D0602B77D821
:1037B000502B3CD0502B73D8402B58D0402B6FD877
:1037C000302B64D0302B6BD8202B60D0202B67D8C7
:1037D000002B5CD0102B5AD062E07B6818683B68E5
:1037E00099683B685A683B68DB6800F0C0FA7B6800
:1037F0001B689B68FB60FB6843F07703FB607B689A
:103800001B68FA689A604EE07B6818683B689968A4
:103810003B685A683B68DB6800F0A9FA7B681B6864
:103820009A687B681B6842F480429A603BE07B6840
:1038300018683B6859683B68DB681A4600F020FA54
:103840007B681B685021184600F077FA2BE07B68F4
:1038500018683B6859683B68DB681A4600F03EFA16
:103860007B681B686021184600F067FA1BE07B68E4
:1038700018683B6859683B68DB681A4600F000FA34
:103880007B681B684021184600F057FA0BE07B6804
:103890001A683B681B681946104600F04EFA02E0B1
:1038A00000BF00E000BF7B68012283F83D207B68F9
:1038B000002283F83C20002318461037BD4680BD07
:1038C00080B485B000AF786039607B681B68FB60AE
:1038D0007B68254A934207D07B68B3F1804F03D0C1
:1038E0007B68224A934208D1FB6823F07003FB6097
:1038F0003B685B68FA681343FB607B681A4A934233
:1039000007D07B68B3F1804F03D07B68174A93429E
:1039100008D1FB6823F44073FB603B68DB68FA68FE
:103920001343FB60FB6823F080023B685B69134331
:10393000FB607B68FA681A603B689A687B68DA62A9
:103940003B681A687B689A627B68074A934203D196
:103950003B681A697B681A637B6801225A6100BF61
:103960001437BD4680BC7047002C01400004004065
:1039700080B487B000AF786039607B681B6A23F041
:1039800001027B681A627B681B6A7B617B685B68EB
:103990003B617B689B69FB60FB6823F07003FB6005
:1039A000FB6823F00303FB603B681B68FA68134362
:1039B000FB607B6923F002037B613B689B687A694B
:1039C00013437B617B681C4A93420CD17B6923F0D3
:1039D00008037B613B68DB687A6913437B617B6921
:1039E00023F004037B617B68134A934211D13B6946
:1039F00023F480733B613B6923F400733B613B68B4
:103A00005B693A6913433B613B689B693A691343BD
:103A10003B617B683A695A607B68FA689A613B68E7
:103A20005A687B685A637B687A691A6200BF1C37E0
:103A3000BD4680BC704700BF002C014080B487B0F9
:103A400000AF786039607B681B6A23F010027B68E6
:103A50001A627B681B6A7B617B685B683B617B6881
:103A60009B69FB60FB6823F4E043FB60FB6823F485
:103A70004073FB603B681B681B02FA681343FB60E2
:103A80007B6923F020037B613B689B681B017A699B
:103A900013437B617B681D4A93420DD17B6923F000
:103AA00080037B613B68DB681B017A6913437B61A0
:103AB0007B6923F040037B617B68144A934213D1F6
:103AC0003B6923F480633B613B6923F400633B6102
:103AD0003B685B699B003A6913433B613B689B69A8
:103AE0009B003A6913433B617B683A695A607B6883
:103AF000FA689A613B685A687B689A637B687A695E
:103B00001A6200BF1C37BD4680BC7047002C0140C4
:103B100080B487B000AF786039607B681B6A23F49B
:103B200080727B681A627B681B6A7B617B685B685A
:103B30003B617B68DB69FB60FB6823F07003FB6023
:103B4000FB6823F00303FB603B681B68FA681343C0
:103B5000FB607B6923F400737B613B689B681B02FD
:103B60007A6913437B617B681D4A93420DD17B695F
:103B700023F400637B613B68DB681B027A691343B3
:103B80007B617B6923F480637B617B68144A934289
:103B900013D13B6923F480533B613B6923F4005309
:103BA0003B613B685B691B013A6913433B613B68BE
:103BB0009B691B013A6913433B617B683A695A6010
:103BC0007B68FA68DA613B685A687B68DA637B680D
:103BD0007A691A6200BF1C37BD4680BC704700BFBF
:103BE000002C014080B487B000AF786039607B68FA
:103BF0001B6A23F480527B681A627B681B6A3B61F4
:103C00007B685B687B617B68DB69FB60FB6823F436
:103C1000E043FB60FB6823F44073FB603B681B6878
:103C20001B02FA681343FB603B6923F400533B61BA
:103C30003B689B681B033A6913433B617B680F4AEF
:103C4000934209D17B6923F480437B613B685B69C4
:103C50009B017A6913437B617B687A695A607B6850
:103C6000FA68DA613B685A687B681A647B683A696B
:103C70001A6200BF1C37BD4680BC7047002C014053
:103C800080B487B000AFF860B9607A60FB681B6AE7
:103C90007B61FB681B6A23F00102FB681A62FB6808
:103CA0009B693B613B6923F0F0033B617B681B012F
:103CB0003A6913433B617B6923F00A037B617A69AC
:103CC000BB6813437B61FB683A699A61FB687A6958
:103CD0001A6200BF1C37BD4680BC704780B487B0F5
:103CE00000AFF860B9607A60FB681B6A23F01002CD
:103CF000FB681A62FB689B697B61FB681B6A3B611E
:103D00007B6923F470437B617B681B037A691343EF
:103D10007B613B6923F0A0033B61BB681B013A69EF
:103D200013433B61FB687A699A61FB683A691A62DE
:103D300000BF1C37BD4680BC704780B485B000AF63
:103D4000786039607B689B68FB60FB6823F07003D8
:103D5000FB603A68FB68134343F00703FB607B6832
:103D6000FA689A6000BF1437BD4680BC704780B4C3
:103D700087B000AFF860B9607A603B60FB689B6811
:103D80007B617B6923F47F437B613B681A027B681C
:103D90001A43BB6813437A6913437B61FB687A69F2
:103DA0009A6000BF1C37BD4680BC704780B487B0A6
:103DB00000AFF860B9607A60BB6803F01F030122AE
:103DC00002FA03F37B61FB681A6A7B69DB431A40E2
:103DD000FB681A62FB681A6ABB6803F01F03796804
:103DE00001FA03F31A43FB681A6200BF1C37BD4691
:103DF00080BC704780B485B000AF786039607B6864
:103E000093F83C30012B01D1022341E07B68012271
:103E100083F83C207B68022283F83D207B681B6886
:103E20005B68FB607B681B689B68BB60FB6823F07A
:103E30007003FB603B681B68FA681343FB607B6898
:103E40001B68FA685A607B681B68144A934209D061
:103E50007B681B68B3F1804F04D07B681B68104AF5
:103E600093420CD1BB6823F08003BB603B685B6866
:103E7000BA681343BB607B681B68BA689A607B684A
:103E8000012283F83D207B68002283F83C20002338
:103E900018461437BD4680BC704700BF002C014057
:103EA0000004004080B485B000AF78603960002322
:103EB000FB607B6893F83C30012B01D102233DE08D
:103EC0007B68012283F83C20FB6823F0FF023B68FB
:103ED000DB681343FB60FB6823F440723B689B681C
:103EE0001343FB60FB6823F480623B685B68134309
:103EF000FB60FB6823F400623B681B681343FB60B4
:103F0000FB6823F480523B681B691343FB60FB682A
:103F100023F400523B685B691343FB60FB6823F4A6
:103F200080423B68DB691343FB607B681B68FA686F
:103F30005A647B68002283F83C200023184614371B
:103F4000BD4680BC70470000014B1868704700BF39
:103F50001000002070B500260C4D0D4C641BA41001
:103F6000A64209D102F0FCFE00260A4D0A4C641B51
:103F7000A410A64205D170BD55F8043B9847013600
:103F8000EEE755F8043B98470136F2E7A4710008C4
:103F9000A4710008A4710008A87100080346024437
:103FA000934200D1704703F8011BF9E7002B2DE97C
:103FB000F0471F46BBBF03F100431F4600232D23DC
:103FC00088B01446129A109D1370149BDDF84CA013
:103FD00023F02008B8F1460F05D0B8F1450F00D105
:103FE0000135022300E0032307AA049206AACDE9C3
:103FF00002A2CDE9003522463B4600F0E5FCB8F1CF
:10400000470F064602D1119BDB0722D5B8F1460FB8
:1040100006EB050910D13378302B0AD1002200239A
:1040200020463946FCF7C0FC18B9C5F10105CAF8AD
:104030000050DAF800309944002200232046394627
:10404000FCF7B2FC08B1CDF81C903022079B4B4521
:1040500007D33046079B159A9B1B136008B0BDE839
:10406000F087591C07911A70F0E70346F7B500294D
:1040700003F8022BB6BF2D222B2249420929427098
:104080002BDD0DF10704A4460A2791FBF7F60A463B
:10409000A64607FB1615632A05F13005314604F1E3
:1040A000FF340EF8015CF0DC3031AEF1020504F8AB
:1040B000011C2946441C61450AD30DF10902A2EBFB
:1040C0000E02654588BF00221344181A03B0F0BDE4
:1040D00011F8012B04F8012FEDE730233031837004
:1040E000C170031DF1E700002DE9F04F91B00C46BF
:1040F000DDF8688016461F46054601F053FA03684E
:1041000018460993FCF724F800230E93D8F80030E2
:104110000A90073323F0070303F1080294F818907C
:10412000D4F800B0C8F80020D3E90023C4E9122372
:10413000D4E9128A2AF000430B934FF0FF32404635
:104140009C4B0B99FCF762FC70BB4FF0FF32404672
:10415000984B0B99FCF73CFC30BB002200234046F7
:104160005146FCF72BFC10B12D2384F84330924BC1
:104170009248B9F1470F94BF9846804603234FF009
:10418000000A23612BF004032360334621462846AE
:1041900000970FAA00F0D4F9013040F090804FF062
:1041A000FF3011B0BDE8F08F4246534640465146BD
:1041B000FCF72CFC48B1BAF1000FB8BF2D238048A2
:1041C000B8BF84F843307F4BD3E7636809F0DF0161
:1041D0005A1C42D106236360002206920EAACDE942
:1041E00004920DAA4BF4806303920DF13302CDE9E2
:1041F00001322360636842460093284653460B9180
:10420000FFF7D4FE0B99804647290D9908D1C81CA9
:1042100002DB6368994240DDA9F102095FFA89F97E
:10422000B9F1650F1FD84A46013904F150000D91CC
:10423000FFF71BFF0E9A82461318012A236102DC46
:104240002268D20701D5013323619DF83330002B5A
:104250009BD02D2384F8433097E74729BCD1002B0E
:10426000BAD10123B7E7B9F1660F18D10029636805
:104270000BDD216113B92268D00702D501330B444D
:1042800023614FF0000AA165DFE713B92268D20766
:1042900001D50233F4E70123F2E74FF067090E9BE3
:1042A000994205DB23682161D807EAD54B1CE7E773
:1042B0000029CCBF0122C1F102021344E0E72368C8
:1042C0005A0507D42369424631462846B84701308B
:1042D0002BD164E7B9F1650F40F2DD80D4E912011A
:1042E00000220023FCF760FB002833D00123314675
:1042F0002846354AB84701303FF451AFDDE90D2378
:104300009A4202DB2368D8070FD5DDE9092331463D
:104310002846B84701303FF442AF4FF0000804F19F
:104320001A090E9B013B434509DC23689B0700F1FA
:104330000281E0680F9B9842B8BF184631E701231D
:104340004A4631462846B84701303FF428AF08F1C5
:104350000108E6E70D9B002B38DC01233146284697
:10436000194AB84701303FF41AAFDDE90D23134372
:1043700002D12368D907D8D5DDE90923314628467B
:10438000B84701303FF40BAF4FF0000904F11A0AAF
:104390000D9B5B424B4501DC0E9B94E7012352468B
:1043A00031462846B84701303FF4F9AE09F101091A
:1043B000EEE700BFFFFFEF7FCC6D0008D06D000877
:1043C000D86D0008D46D0008DC6D00080E9AA36D4E
:1043D0009A42A8BF1A46002A914637DC4FF0000BDC
:1043E00029EAE97904F11A02D4F858A0AAEB0903E2
:1043F0005B4533DCDDE90D239A423BDB2368DA07BA
:1044000038D40E9B0D99A3EB0A02A3EB0109914549
:10441000A8BF9146B9F1000F34DC4FF0000829EA3B
:10442000E97904F11A0ADDE90D239B1AA3EB0903CC
:1044300043457FF77AAF0123524631462846B847B5
:1044400001303FF4ACAE08F10108ECE71346314609
:1044500042462846B8470130C0D1A0E60123314684
:1044600028460B92B84701303FF499AE0B9A0BF1F6
:10447000010BB9E73146DDE909232846B847013089
:10448000BFD18CE64B463146284608EB0A02B847B6
:104490000130C2D183E60E9A012A01DCDB0737D551
:1044A0000123424631462846B84701303FF477AEF3
:1044B000DDE9092331462846B84701303FF46FAEA5
:1044C000D4E9120100220023FCF76EFAD8B90E9B42
:1044D00008F10102013B31462846B84701300ED1B0
:1044E0005DE601234A4631462846B84701303FF48D
:1044F00056AE08F101080E9B013B4345F1DC5346E3
:1045000004F15002E0E64FF0000804F11A09F2E766
:1045100001234246DFE701234A4631462846B84791
:1045200001303FF43CAE08F10108E3680F995B1AD3
:104530004345F0DCFDE64FF0000804F11909F4E70B
:104540002DE9F047164699468A680B69074693425B
:10455000B8BF1346336091F843200C46DDF8208045
:104560000AB1013333602368990642BF33680233CE
:104570003360256815F0060506D104F1190AE368D1
:1045800032689B1AAB4228DC94F84320131E226841
:1045900018BF012392062DD44946384604F1430240
:1045A000C047013020D02368E56803F00603042BE0
:1045B00018BF002532684FF00006A36808BFAD1A87
:1045C000226908BF25EAE5759342C4BF9B1AED181E
:1045D0001A34B5421AD1002008E001235246494658
:1045E0003846C047013003D14FF0FF30BDE8F087B7
:1045F0000135C4E73020E11881F843005A1C94F8D3
:1046000045102244023382F84310C5E701232246B5
:1046100049463846C0470130E6D00136D9E70000A8
:104620002DE9FF470F7E9146782F80460C469A462B
:104630000C9D01F1430207D8622F0AD8002F00F029
:10464000D980582F00F0A48004F1420584F842700C
:104650003AE0A7F16303152BF6D801A151F823F036
:10466000B9460008CD4600084946000849460008FA
:104670004946000849460008CD460008494600085A
:10468000494600084946000849460008DB4700083B
:10469000FD460008BD470008494600084946000895
:1046A000FD47000849460008FD4600084946000845
:1046B00049460008C54700082B681A1D1B682A6078
:1046C00004F1420584F842300123A4E020682968FF
:1046D000060601F104030AD50E682B60002E03DAEA
:1046E0002D23764284F843300A235E4819E00E6891
:1046F00010F0400F2B6018BF36B2EFE72B68206830
:10470000191D2960010601D51E6802E04606FBD589
:104710001E886F2F0CBF08230A235248002184F8FB
:1047200043106568002DA8BF2168A560A4BF21F0D3
:10473000040121600EB9002D4DD01546B6FBF3F1F2
:1047400003FB1167C75D05F8017D3746BB420E4686
:10475000F4D9082B0BD12368DE0708D523696168DB
:104760009942DEBF302305F8013C05F1FF35521BAD
:1047700022614B4621464046CDF800A003AAFFF730
:10478000DFFE01304CD14FF0FF3004B0BDE8F087C0
:10479000344881F845702968236851F8046B296012
:1047A0001D0614D5DF0744BF43F0200323601EB964
:1047B000236823F0200323601023AFE7236843F02E
:1047C000200323607823284884F84530E3E759061E
:1047D00048BFB6B2E6E71546BBE72B682668181D4A
:1047E0006169286035061B6801D5196002E0700612
:1047F000FBD51980002315462361BAE72B680021F9
:104800001A1D2A601D686268284600F0D7FE08B1AC
:10481000401B606063682361002384F84330A8E78D
:104820002A46494640462369D0470130ABD0236829
:104830009B0713D4E068039B9842B8BF1846A4E7CF
:104840000123324649464046D04701309BD00135CE
:10485000E36803995B1AAB42F2DCEBE7002504F155
:104860001906F5E7DE6D0008EF6D00080EB46FF075
:10487000004100B59CB01DAB0290069007910491D9
:104880000848094953F8042B0591006802A90193CF
:1048900001F07EFB0022029B1A701CB05DF804EB55
:1048A00003B07047100000200802FFFF2DE9F74F0A
:1048B00003690C690746A342C0F28280013C00F103
:1048C000140501F1140805EB8403019358F8243012
:1048D00055F8242001339A42B2FBF3F64FEA840BD9
:1048E00008EB840931D34FF0000E4046AC46F24647
:1048F00050F8042B93B206FB03E3120C4FEA134E5D
:104900009BB206FB02E2AAEB0303DCF800A04FEA2D
:10491000124E1FFA8AFA5344DCF800A092B2C2EB9E
:104920001A4202EB23429BB243EA024381454FEA1B
:10493000224A4CF8043BDBD255F80B302BB9019BD3
:10494000043B9D421A462FD33C61384601F0D0F813
:10495000002825DB28464FF0000C013658F8041BD0
:10496000D0F800E08BB2ACEB03031FFA8EF21344D5
:104970000A0CC2EB1E4202EB23429BB243EA024303
:10498000C1454FEA224C40F8043BE7D255F82420B9
:1049900005EB840322B9043B9D421A460AD33C61CD
:1049A000304603B0BDE8F08F1268043B002ACBD13B
:1049B000013CC6E71268043B002AF0D1013CEBE75A
:1049C0000020EEE7000000002DE9F04F16461F46DC
:1049D000446A99B00546CDE90467DDF8948074B95E
:1049E000102000F0E3FD0246686220B9EA21A84BDE
:1049F000A84801F0DDFBC0E901440460C4606B6AB3
:104A0000196851B15A68012393404A608B60284667
:104A100000F030FE00226B6A1A603B1EAFBF00231D
:104A2000012223F000430593A8BFC8F80030DDF849
:104A30001490994BB8BFC8F8002033EA090319D184
:104A400042F20F73249A1360C9F31303334300F047
:104A50007F85269B53B9914B22E0914B03930833FA
:104A6000269A1360039819B0BDE8F08F8B4B03931F
:104A70000333F5E7DDE90434CDE90C34DDE90C015D
:104A800000220023FBF790FF804658B10123249AAF
:104A90001360269B002B00F0588582481860431E47
:104AA0000393DFE716AB019317AB00932846DDE9CC
:104AB0000C2301F0C5F8C9F30A548346002C7FD0BB
:104AC000DDE90C010D9BA4F2FF34C3F3130343F0A3
:104AD0007F5141F44011CDF84C800022724BFBF71E
:104AE00043FB65A3D3E90023FBF7F6FC64A3D3E9FA
:104AF0000023FBF73BFB064620460F46FBF782FCF4
:104B000061A3D3E90023FBF7E7FC02460B463046DE
:104B10003946FBF72BFB06460F46FBF78DFF0022BD
:104B20008246002330463946FBF748FF48B15046DD
:104B3000FBF768FC32463B46FBF736FF08B90AF143
:104B4000FF3ABAF1160F58D8DDE90C01574B03EBC9
:104B5000CA03D3E90023FBF731FF00284FD000231D
:104B60000AF1FF3A0F93169B1C1B631E099349BF62
:104B7000C4F1010300230693002354BF0693099355
:104B8000BAF1000F3DDB099BCDF838A053440993DF
:104B900000230A93229B092B00F28C80052BC4BFB3
:104BA000043B2293229BC8BF0024A3F10203D8BF79
:104BB0000124032B00F28A80DFE803F02D4F4D5BC8
:104BC000DDE916431C4404F23243202BC3BFC3F17A
:104BD000400304F2124009FA03F3C3F12003C6BFF5
:104BE00026FA00F0184306FA03F0FBF7FBFB01235B
:104BF000A1F1F871013C13936FE70123B2E70F9025
:104C0000B1E7069BA3EB0A030693CAF100030A93DC
:104C100000230E93BEE700230B93239B002B58DC4D
:104C20004FF001094B46CDF82090CDF88C90002232
:104C3000686A4260042202F114069E4241684ED91D
:104C4000284600F0D7FC039000284CD102464FF4D0
:104C5000D571174BCCE60123DEE700230B93239B92
:104C60000AEB030909F10103012B0893B8BF0123E3
:104C7000DDE70123F2E700BF61436F63A787D23FFF
:104C8000B3C8608B288AC63FFB799F501344D33F3B
:104C90000D6E0008246E00080000F07F096E000809
:104CA000006E0008DD6D00080000F83F186F000876
:104CB0007F6E0008012400230B9422934FF0FF39EC
:104CC00000221223CDF820902392B0E701230B930A
:104CD000F4E7DDF88C904B46CDF82090A7E7013142
:104CE00041605200A7E76B6A039A1A60089B0E2B7B
:104CF00000F2A880002C00F0A580BAF1000F34DD8E
:104D00009A4A0AF00F0302EBC3031AF4807FD3E937
:104D10000034CDE910344FEA2A1416D0DDE90C0135
:104D2000934B0327D3E90823FBF700FDCDE90401EA
:104D300004F00F048E4E54B9DDE91023DDE90401BF
:104D4000FBF7F4FCCDE9040129E00227F2E7E107D3
:104D500008D5DDE91001D6E90023FBF7BDFBCDE95D
:104D60001001013764100836E5E700F0A580DDE9A1
:104D70000C01CAF100047D4B04F00F0203EBC203E7
:104D8000D3E90023FBF7A8FB02270023CDE90401A8
:104D9000774E2411002C40F08480002BD2D10F9B41
:104DA000002B00F08B80DDE90434CDE91034DDE91F
:104DB000100100226F4BFBF701FE00287ED0089BFC
:104DC000002B7BD0B9F1000F38DDDDE910010022A6
:104DD000694BFBF781FB4C46CDE904010AF1FF3832
:104DE00001373846FBF70EFBDDE90423FBF774FBC4
:104DF0000022624BFBF7BAF9A1F15076CDE9100120
:104E00001196002C5DD1DDE9040100225C4BFBF71B
:104E1000ABF902460B46CDE904233346109AFBF763
:104E2000EBFD002840F09C82DDE90401109A06F1B8
:104E30000043FBF7C3FD002840F09082DDE90C340D
:104E4000CDE90434179B002BC0F25281BAF10E0F4A
:104E500000F34E81454B03EBCA03D3E90034CDE99F
:104E60000634239B002B80F2DB80089B002B00F391
:104E7000D78040F07282DDE906010022404BFBF74B
:104E80002BFBDDE90423FBF7ADFD089C264600283B
:104E900040F048823123039F0AF1010A07F8013BE1
:104EA00044E2E20705D5D6E90023FBF715FB012311
:104EB0000137641008366DE7022770E7D046089C7A
:104EC0008FE70399294B214412910B9903EBC403FB
:104ED000DDE9106753E90223002955D00020294954
:104EE000FBF724FC3B463246FBF73EF9CDE91001C7
:104EF000039FDDE90401FBF79FFD0446FBF782FAFF
:104F000002460B46DDE90401FBF72EF902460B468B
:104F10003034CDE90423DDE9102307F8014BFBF71A
:104F20004DFD002874D1DDE9042300201149FBF771
:104F30001BF9DDE91023FBF741FD002840F0B780A5
:104F4000129B9F423FF47AAFDDE9100100220A4B29
:104F5000FBF7C2FA0022CDE91001DDE90401064B9E
:104F6000FBF7BAFACDE90401C3E700BF186F0008E8
:104F7000F06E00080000F03F0000244000001C40DC
:104F8000000014400000E03F30463946FBF7A4FA29
:104F9000129BCDE91001039C1493DDE90401FBF79A
:104FA0004BFD1590FBF72EFA02460B46DDE9040196
:104FB000FBF7DAF8159B0646303304F8013B129BE9
:104FC0000F469C424FF0000224D1DDE91001B04BA6
:104FD000FBF7CCF802460B4630463946FBF70CFD92
:104FE000002863D1DDE910230020A949FBF7BCF8B4
:104FF00002460B4630463946FBF7E0FC00283FF4FA
:105000001DAF149F7B1E149317F8013C302BF8D072
:10501000C2463BE09F4BFBF75FFACDE90401BCE7DA
:10502000039FDDE90489DDE9062340464946FBF795
:105030007DFBFBF701FD0446FBF7E4F9DDE9062300
:10504000FBF74AFA02460B4640464946FBF78CF806
:1050500004F1300607F8016B039EDDF820C0BE1B8B
:10506000B44502460B4636D1FBF780F8DDE906234E
:1050700080468946FBF7C0FC58BBDDE90623404665
:105080004946FBF791FC08B1E10722D4284659466E
:1050900000F0F0FA00233B70249B0AF10100186035
:1050A000269B002B3FF4DEAC1F60DBE427463B462B
:1050B0001F4613F8012D392A07D1039A9A42F7D1D6
:1050C0003022039908F101080A701A7801321A7027
:1050D0009EE7D046EBE700226E4BFBF7FDF900227E
:1050E000002380468946FBF75FFC00289BD0CDE774
:1050F0000B9A002A00F0D080229A012A00F3AE8099
:10510000139A002A00F0A68003F233430A9C069FFC
:10511000069A01211A440692099A28461A440992CD
:1051200000F05EFB0646002F0CDD099B002B09DD1D
:10513000BB42A8BF3B46069AFF1AD21A0692099AAA
:10514000D31A09930A9BF3B10B9B002B00F0A880A4
:10515000002C10DD31462246284600F0FFFB5A465F
:1051600001460646284600F051FB8046594628462F
:1051700000F080FAC3460A9B1A1B04D05946284601
:1051800000F0ECFB83460121284600F029FB0E9B32
:105190000446002B40F386801A460146284600F05C
:1051A000DDFB229B0446012B7FDD4FF000082369C5
:1051B00004EB8303186900F0C5FAC0F12000099BD5
:1051C000184410F01F0000F09280C0F12003042B5F
:1051D00040F38A80C0F11C00069B074403440693F9
:1051E000099B03440993069B002B05DD59461A468B
:1051F000284600F00DFC8346099B002B05DD214667
:105200001A46284600F004FC04460F9B002B70D081
:105210002146584600F06CFC00286ADA0023594603
:105220000A22284600F048FA0B9B83460AF1FF3A0F
:10523000002B00F09481314600230A22284600F01A
:105240003BFAB9F1000F064600F39380229B022B34
:1052500057DC8EE0169BC3F1360357E7089B5C1EB4
:105260000A9BA342B7BF0A9B1C1BE21A0E9BBEBF40
:105270000A949B180E93089BB8BF0024002BBBBF59
:10528000069B089A069F9F1AACBF089B00233FE726
:105290000000E03F000024400A9C069F0B9E42E76E
:1052A0000A9A6BE7229B012B19DC049BBBB9059B77
:1052B000C3F313039BB9059B23F000431B0D1B0590
:1052C00083B14FF00108069B01330693099B01331C
:1052D00009930E9B002B7FF46AAF01206FE74FF01C
:1052E0000008F6E79846F4E73FF47DAF18461C3017
:1052F00072E7089B002B36DC229B022B33DDDDF8A6
:105300002090B9F1000F0DD121464B4605222846C9
:1053100000F0D2F901460446584600F0E9FB0028A7
:105320003FF7B8AD239B039F6FEA030A4FF00008D5
:105330002146284600F09EF9002E3FF4A7AEB8F1B2
:10534000000F05D0B04503D04146284600F092F941
:105350003146284600F08EF998E600242646E1E71B
:10536000C246264696E50B9BDDF82090002B00F008
:10537000FD80002F05DD31463A46284600F048FB07
:105380000646B8F1000F5CD02846716800F032F98B
:10539000074628B9024640F2EA217F4BFFF728BBB7
:1053A000326906F10C01023292000C3000F014F95F
:1053B00001223946284600F02BFBB0460646039BE7
:1053C00001330893039B4B440A93049B03F00103AE
:1053D0000993089B2146013B58460493FFF766FA60
:1053E000034641463033069058460B9300F080FB4D
:1053F000324681462146284600F096FBC2680746A1
:105400000B9B02BB0146584600F072FB02460B9B09
:1054100039462846CDE90B3200F02CF9229B0C9A34
:10542000089F43EA0201099B0B430B9B0DD1392BCB
:1054300029D0B9F1000F01DD069B3133049A1370B6
:1054400076E73046B9E70122E2E7B9F1000F06DB63
:10545000229941EA0909099959EA010120D1002A52
:10546000ECDD594601222846089300F0D1FA214686
:10547000834600F03DFB0028089B02DCDED1DA0702
:10548000DCD5392BD8D13923049A13703B461F46FB
:1054900017F8012C013B392A50D001321A7047E726
:1054A000002A03DD392BEED00133C7E7089A0A99A9
:1054B00002F8013C8A422AD0594600230A22284693
:1054C00000F0FAF8B04583464FF000034FF00A02AF
:1054D0004146284607D100F0EFF880460646089B73
:1054E0000133089375E700F0E7F831468046002362
:1054F0000A22284600F0E0F80646F0E7B9F1000F6E
:10550000CCBF4F4601274FF00008039A1744594675
:1055100001222846089300F07BFA2146834600F0DA
:10552000E7FA0028B2DC02D1089BDB07AED43B4689
:105530001F4613F8012D302AFAD0F9E6039A9A4251
:10554000A5D131230AF1010A79E7144BFFF7A8BA74
:10555000269B002B7FF481AA114BFFF7A1BAB9F16A
:10556000000F03DC229B022B3FF7CBAE039F2146AB
:105570005846FFF79BF9039A00F1300307F8013B07
:10558000BA1A9145BADD594600230A22284600F08E
:1055900093F88346EBE700BF7F6E0008DC6D0008E0
:1055A000006E00080048704764010020024B01466D
:1055B000186800F01DBC00BF10000020034610B5A5
:1055C000C9B202449342184601D1002003E0047896
:1055D00001338C42F6D110BD0A44914200F1FF33F1
:1055E00000D1704710B511F8014B914203F8014FFB
:1055F000F9D110BD70B5466A04460D4676B9102043
:10560000FFF7D4FF0246606220B96621174B1848A5
:1056100000F0CEFDC0E901660660C660666AF36808
:1056200083B1636ADB6853F82500B8B9012101FA38
:1056300005F6721D2046920000F05EFB60B1C0E9E5
:1056400001560EE021220421204600F055FB636A3A
:10565000F060DB68002BE4D1002070BD026843F8E5
:1056600025200023C0E90333F7E700BF0D6E0008D3
:10567000906E000870B5466A05460C4676B9102053
:10568000FFF794FF0246686220B98A21084B094857
:1056900000F08EFDC0E901660660C6603CB16B6A31
:1056A0006268DB6853F82210216043F8224070BD25
:1056B0000D6E0008906E00082DE9F04107460C467B
:1056C0001E4600200D6901F1140CDCF80030013099
:1056D00099B202FB01611E0C0B0C02FB063389B26E
:1056E00001EB034185424FEA13464CF8041BECDC06
:1056F0000EB3A368AB4219DC616838460131FFF78D
:1057000079FF804628B90246B5210C4B0C4800F0C1
:105710004FFD226904F10C01023292000C30FFF7B8
:105720005BFF21463846FFF7A5FF444604EB85039F
:1057300001355E6125612046BDE8F0817F6E00087D
:10574000906E0008020C12040346CAB9030410202C
:1057500013F07F4F04BF1B02083013F0704F04BFDB
:105760001B01043013F0404F04BF9B000230002B9C
:1057700005DB13F0804F00F1010008BF20207047C7
:105780000020E5E70368024613F007000BD0D907B5
:1057900021D4980749BF5B089B08012013605CBFB8
:1057A00002201360704799B209B910201B0CD9B2BE
:1057B00009B908301B0A190704BF1B0904309907EF
:1057C00004BF9B080230D90703D45B0800F1010035
:1057D00003D01360704700207047202070470000FE
:1057E00010B50C460121FFF705FF024628B94FF41A
:1057F000A071044B044800F0DBFC01234461036109
:1058000010BD00BF7F6E0008906E00082DE9F04FBC
:1058100091460A69D9F810300C469A42BEBF0B4631
:105820004C4699462769D9F810A0A368616807EB30
:105830000A06B34285B0B8BF0131FFF7DBFE30B9CD
:10584000024640F25D11434B434800F0B1FC00F1C9
:1058500014052B46002205EB8608434521D304F1AD
:10586000140303EB870709F1140303EB8A02029286
:105870003A1B153A22F00302043204F115018F425B
:1058800038BF04220192029A03939A420CD8002E48
:1058900003DD58F8043D002B59D0066105B0BDE882
:1058A000F08F43F8042BD8E7B3F800A0BAF1000F4B
:1058B00023D0A9464FF0000C04F1140E5EF8042B1F
:1058C000D9F800101FFA82FB89B20AFB0B11614460
:1058D000D9F800C0120C4FEA1C4C0AFB02C202EBC2
:1058E000114289B241EA024177454FEA124C49F828
:1058F000041BE3D8019A45F802C0039A0433B2F8B6
:105900000290B9F1000F20D0AE464FF0000A29688E
:1059100004F1140CBCF800B0BEF8022089B209FBF7
:105920000B22924441EA0A414EF8041B5CF8042B16
:10593000BEF80010120C09FB0211674501EB1A4179
:105940004FEA114AE6D8019AA95004359BE7013E77
:105950009DE700BF7F6E0008906E00082DE9F843B8
:10596000154612F0030206460F4607D0254C013AB1
:10597000002354F82220FFF79FFE0746AD103DD0CC
:10598000746A7CB91020FFF711FE0246706228B9D4
:105990004FF4D7711C4B1D4800F00AFCC0E90144CC
:1059A0000460C460D6F82480D8F808404CB940F2AE
:1059B00071213046FFF714FF00230446C8F80800A1
:1059C00003604FF00009EB070AD5394622463046FE
:1059D000FFF71CFF804639463046FFF74BFE47462F
:1059E0006D100BD0206838B9224621463046FFF7AB
:1059F0000DFF2060C0F800900446E4E73846BDE89B
:105A0000F88300BFE06F00080D6E0008906E00087C
:105A10002DE9F0470C46074691462369496803EB98
:105A20006218A3684FEA621A08F10106B3420BDB61
:105A30003846FFF7DFFD054648B9024640F2D91166
:105A4000294B2A4800F0B4FB01315B00EEE700234C
:105A500000F1140100F110021846534537DB2069AC
:105A60002AEAEA7A04F1140319F01F0901EB8A010A
:105A700003EB80002FD08A464FF0000CC9F1200EB6
:105A80001A6802FA09F242EA0C024AF8042B53F8A7
:105A9000042B984222FA0EFCF2D8031B153B23F08C
:105AA0000303043304F11502904238BF042341F884
:105AB00003C0BCF1000F01D008F10206013E3846D8
:105AC00021462E61FFF7D6FD2846BDE8F08742F853
:105AD000040F0133C1E7043953F8042B984241F80D
